{
  "contractName": "Agent",
  "abi": [
    {
      "constant": true,
      "inputs": [
        {
          "name": "",
          "type": "uint256"
        }
      ],
      "name": "doctorList",
      "outputs": [
        {
          "name": "",
          "type": "address"
        }
      ],
      "payable": false,
      "stateMutability": "view",
      "type": "function"
    },
    {
      "constant": true,
      "inputs": [
        {
          "name": "",
          "type": "uint256"
        }
      ],
      "name": "patientDetails",
      "outputs": [
        {
          "name": "",
          "type": "string"
        }
      ],
      "payable": false,
      "stateMutability": "view",
      "type": "function"
    },
    {
      "constant": true,
      "inputs": [
        {
          "name": "",
          "type": "uint256"
        }
      ],
      "name": "patientList",
      "outputs": [
        {
          "name": "",
          "type": "address"
        }
      ],
      "payable": false,
      "stateMutability": "view",
      "type": "function"
    },
    {
      "constant": true,
      "inputs": [
        {
          "name": "",
          "type": "uint256"
        }
      ],
      "name": "doctorDetails",
      "outputs": [
        {
          "name": "",
          "type": "string"
        }
      ],
      "payable": false,
      "stateMutability": "view",
      "type": "function"
    },
    {
      "constant": false,
      "inputs": [
        {
          "name": "_name",
          "type": "string"
        },
        {
          "name": "_age",
          "type": "uint256"
        },
        {
          "name": "_designation",
          "type": "uint256"
        },
        {
          "name": "_hash",
          "type": "string"
        }
      ],
      "name": "add_agent",
      "outputs": [
        {
          "name": "",
          "type": "string"
        }
      ],
      "payable": false,
      "stateMutability": "nonpayable",
      "type": "function"
    },
    {
      "constant": true,
      "inputs": [
        {
          "name": "addr",
          "type": "address"
        }
      ],
      "name": "get_patient",
      "outputs": [
        {
          "name": "",
          "type": "string"
        },
        {
          "name": "",
          "type": "uint256"
        },
        {
          "name": "",
          "type": "uint256[]"
        },
        {
          "name": "",
          "type": "address"
        },
        {
          "name": "",
          "type": "string"
        }
      ],
      "payable": false,
      "stateMutability": "view",
      "type": "function"
    },
    {
      "constant": true,
      "inputs": [
        {
          "name": "addr",
          "type": "address"
        }
      ],
      "name": "get_doctor",
      "outputs": [
        {
          "name": "",
          "type": "string"
        },
        {
          "name": "",
          "type": "uint256"
        }
      ],
      "payable": false,
      "stateMutability": "view",
      "type": "function"
    },
    {
      "constant": true,
      "inputs": [
        {
          "name": "paddr",
          "type": "address"
        },
        {
          "name": "daddr",
          "type": "address"
        }
      ],
      "name": "get_patient_doctor_name",
      "outputs": [
        {
          "name": "",
          "type": "string"
        },
        {
          "name": "",
          "type": "string"
        }
      ],
      "payable": false,
      "stateMutability": "view",
      "type": "function"
    },
    {
      "constant": false,
      "inputs": [
        {
          "name": "addr",
          "type": "address"
        }
      ],
      "name": "permit_access",
      "outputs": [],
      "payable": true,
      "stateMutability": "payable",
      "type": "function"
    },
    {
      "constant": false,
      "inputs": [
        {
          "name": "paddr",
          "type": "address"
        },
        {
          "name": "_diagnosis",
          "type": "uint256"
        },
        {
          "name": "_hash",
          "type": "string"
        }
      ],
      "name": "insurance_claim",
      "outputs": [],
      "payable": false,
      "stateMutability": "nonpayable",
      "type": "function"
    },
    {
      "constant": false,
      "inputs": [
        {
          "name": "paddr",
          "type": "address"
        },
        {
          "name": "daddr",
          "type": "address"
        }
      ],
      "name": "remove_patient",
      "outputs": [],
      "payable": false,
      "stateMutability": "nonpayable",
      "type": "function"
    },
    {
      "constant": true,
      "inputs": [
        {
          "name": "addr",
          "type": "address"
        }
      ],
      "name": "get_accessed_doctorlist_for_patient",
      "outputs": [
        {
          "name": "",
          "type": "address[]"
        }
      ],
      "payable": false,
      "stateMutability": "view",
      "type": "function"
    },
    {
      "constant": true,
      "inputs": [
        {
          "name": "addr",
          "type": "address"
        }
      ],
      "name": "get_accessed_patientlist_for_doctor",
      "outputs": [
        {
          "name": "",
          "type": "address[]"
        }
      ],
      "payable": false,
      "stateMutability": "view",
      "type": "function"
    },
    {
      "constant": false,
      "inputs": [
        {
          "name": "daddr",
          "type": "address"
        }
      ],
      "name": "revoke_access",
      "outputs": [],
      "payable": true,
      "stateMutability": "payable",
      "type": "function"
    },
    {
      "constant": true,
      "inputs": [],
      "name": "get_patient_list",
      "outputs": [
        {
          "name": "",
          "type": "address[]"
        }
      ],
      "payable": false,
      "stateMutability": "view",
      "type": "function"
    },
    {
      "constant": true,
      "inputs": [],
      "name": "get_doctor_list",
      "outputs": [
        {
          "name": "",
          "type": "address[]"
        }
      ],
      "payable": false,
      "stateMutability": "view",
      "type": "function"
    },
    {
      "constant": true,
      "inputs": [],
      "name": "get_patient_details",
      "outputs": [
        {
          "name": "",
          "type": "string[]"
        }
      ],
      "payable": false,
      "stateMutability": "view",
      "type": "function"
    },
    {
      "constant": true,
      "inputs": [],
      "name": "get_doctor_details",
      "outputs": [
        {
          "name": "",
          "type": "string[]"
        }
      ],
      "payable": false,
      "stateMutability": "view",
      "type": "function"
    },
    {
      "constant": true,
      "inputs": [
        {
          "name": "paddr",
          "type": "address"
        }
      ],
      "name": "get_hash",
      "outputs": [
        {
          "name": "",
          "type": "string"
        }
      ],
      "payable": false,
      "stateMutability": "view",
      "type": "function"
    }
  ],
  "bytecode": "0x608060405234801561001057600080fd5b50612623806100206000396000f3fe608060405260043610610100576000357c0100000000000000000000000000000000000000000000000000000000900480627ee3ce146101055780630362fe9b14610142578063127ca4b41461016b5780631e3fc3b8146101a857806327b1dcee146101e65780634042d2d41461020257806356c98c48146102435780637e1519ce146102815780637e4f5e4c146102be5780639b40298e146102fb578063a560624b14610326578063babb1d4114610351578063bcffb7ca1461038e578063c39e9635146103aa578063dd44176b146103d5578063e6c0b5d214610412578063e81ac0541461044f578063f02d90a41461047a578063f24be9e7146104b7575b600080fd5b34801561011157600080fd5b5061012c60048036036101279190810190611fb8565b6104e0565b6040516101399190612309565b60405180910390f35b34801561014e57600080fd5b5061016960048036036101649190810190611fe1565b6105b6565b005b34801561017757600080fd5b50610192600480360361018d9190810190612117565b610652565b60405161019f91906122ee565b60405180910390f35b3480156101b457600080fd5b506101cf60048036036101ca9190810190611fe1565b610690565b6040516101dd929190612391565b60405180910390f35b61020060048036036101fb9190810190611fb8565b61085a565b005b34801561020e57600080fd5b5061022960048036036102249190810190611fb8565b6108c6565b60405161023a9594939291906123f8565b60405180910390f35b34801561024f57600080fd5b5061026a60048036036102659190810190611fb8565b610bd6565b6040516102789291906123c8565b60405180910390f35b34801561028d57600080fd5b506102a860048036036102a39190810190611fb8565b610d04565b6040516102b5919061236f565b60405180910390f35b3480156102ca57600080fd5b506102e560048036036102e09190810190612117565b610de8565b6040516102f2919061234d565b60405180910390f35b34801561030757600080fd5b50610310610ea3565b60405161031d919061232b565b60405180910390f35b34801561033257600080fd5b5061033b610f8c565b604051610348919061232b565b60405180910390f35b34801561035d57600080fd5b5061037860048036036103739190810190612117565b611075565b60405161038591906122ee565b60405180910390f35b6103a860048036036103a39190810190611fb8565b6110b3565b005b3480156103b657600080fd5b506103bf61122e565b6040516103cc9190612309565b60405180910390f35b3480156103e157600080fd5b506103fc60048036036103f79190810190611fb8565b6112bc565b6040516104099190612309565b60405180910390f35b34801561041e57600080fd5b5061043960048036036104349190810190612117565b61138c565b604051610446919061234d565b60405180910390f35b34801561045b57600080fd5b50610464611447565b6040516104719190612309565b60405180910390f35b34801561048657600080fd5b506104a1600480360361049c9190810190612084565b6114d5565b6040516104ae919061236f565b60405180910390f35b3480156104c357600080fd5b506104de60048036036104d9919081019061201d565b6117e0565b005b60606000600560008473ffffffffffffffffffffffffffffffffffffffff1673ffffffffffffffffffffffffffffffffffffffff1681526020019081526020016000206002019050808054806020026020016040519081016040528092919081815260200182805480156105a957602002820191906000526020600020905b8160009054906101000a900473ffffffffffffffffffffffffffffffffffffffff1673ffffffffffffffffffffffffffffffffffffffff168152602001906001019080831161055f575b5050505050915050919050565b610601600660008373ffffffffffffffffffffffffffffffffffffffff1673ffffffffffffffffffffffffffffffffffffffff16815260200190815260200160002060020183611a55565b5061064d600560008473ffffffffffffffffffffffffffffffffffffffff1673ffffffffffffffffffffffffffffffffffffffff16815260200190815260200160002060020182611a55565b505050565b60028181548110151561066157fe5b906000526020600020016000915054906101000a900473ffffffffffffffffffffffffffffffffffffffff1681565b606080600560008573ffffffffffffffffffffffffffffffffffffffff1673ffffffffffffffffffffffffffffffffffffffff168152602001908152602001600020600001600660008573ffffffffffffffffffffffffffffffffffffffff1673ffffffffffffffffffffffffffffffffffffffff168152602001908152602001600020600001818054600181600116156101000203166002900480601f0160208091040260200160405190810160405280929190818152602001828054600181600116156101000203166002900480156107ac5780601f10610781576101008083540402835291602001916107ac565b820191906000526020600020905b81548152906001019060200180831161078f57829003601f168201915b50505050509150808054600181600116156101000203166002900480601f0160208091040260200160405190810160405280929190818152602001828054600181600116156101000203166002900480156108485780601f1061081d57610100808354040283529160200191610848565b820191906000526020600020905b81548152906001019060200180831161082b57829003601f168201915b50505050509050915091509250929050565b61086433826105b6565b3373ffffffffffffffffffffffffffffffffffffffff166108fc671bc16d674ec800009081150290604051600060405180830381858888f193505050501580156108b2573d6000803e3d6000fd5b506002600080828254039250508190555050565b60606000606060006060600560008773ffffffffffffffffffffffffffffffffffffffff1673ffffffffffffffffffffffffffffffffffffffff168152602001908152602001600020600001600560008873ffffffffffffffffffffffffffffffffffffffff1673ffffffffffffffffffffffffffffffffffffffff16815260200190815260200160002060010154600560008973ffffffffffffffffffffffffffffffffffffffff1673ffffffffffffffffffffffffffffffffffffffff168152602001908152602001600020600301600760008a73ffffffffffffffffffffffffffffffffffffffff1673ffffffffffffffffffffffffffffffffffffffff16815260200190815260200160002060009054906101000a900473ffffffffffffffffffffffffffffffffffffffff16600560008b73ffffffffffffffffffffffffffffffffffffffff1673ffffffffffffffffffffffffffffffffffffffff168152602001908152602001600020600401848054600181600116156101000203166002900480601f016020809104026020016040519081016040528092919081815260200182805460018160011615610100020316600290048015610ace5780601f10610aa357610100808354040283529160200191610ace565b820191906000526020600020905b815481529060010190602001808311610ab157829003601f168201915b5050505050945082805480602002602001604051908101604052809291908181526020018280548015610b2057602002820191906000526020600020905b815481526020019060010190808311610b0c575b50505050509250808054600181600116156101000203166002900480601f016020809104026020016040519081016040528092919081815260200182805460018160011615610100020316600290048015610bbc5780601f10610b9157610100808354040283529160200191610bbc565b820191906000526020600020905b815481529060010190602001808311610b9f57829003601f168201915b505050505090509450945094509450945091939590929450565b60606000600660008473ffffffffffffffffffffffffffffffffffffffff1673ffffffffffffffffffffffffffffffffffffffff168152602001908152602001600020600001600660008573ffffffffffffffffffffffffffffffffffffffff1673ffffffffffffffffffffffffffffffffffffffff16815260200190815260200160002060010154818054600181600116156101000203166002900480601f016020809104026020016040519081016040528092919081815260200182805460018160011615610100020316600290048015610cf45780601f10610cc957610100808354040283529160200191610cf4565b820191906000526020600020905b815481529060010190602001808311610cd757829003601f168201915b5050505050915091509150915091565b6060600560008373ffffffffffffffffffffffffffffffffffffffff1673ffffffffffffffffffffffffffffffffffffffff1681526020019081526020016000206004018054600181600116156101000203166002900480601f016020809104026020016040519081016040528092919081815260200182805460018160011615610100020316600290048015610ddc5780601f10610db157610100808354040283529160200191610ddc565b820191906000526020600020905b815481529060010190602001808311610dbf57829003601f168201915b50505050509050919050565b600381815481101515610df757fe5b906000526020600020016000915090508054600181600116156101000203166002900480601f016020809104026020016040519081016040528092919081815260200182805460018160011615610100020316600290048015610e9b5780601f10610e7057610100808354040283529160200191610e9b565b820191906000526020600020905b815481529060010190602001808311610e7e57829003601f168201915b505050505081565b60606003805480602002602001604051908101604052809291908181526020016000905b82821015610f83578382906000526020600020018054600181600116156101000203166002900480601f016020809104026020016040519081016040528092919081815260200182805460018160011615610100020316600290048015610f6f5780601f10610f4457610100808354040283529160200191610f6f565b820191906000526020600020905b815481529060010190602001808311610f5257829003601f168201915b505050505081526020019060010190610ec7565b50505050905090565b60606004805480602002602001604051908101604052809291908181526020016000905b8282101561106c578382906000526020600020018054600181600116156101000203166002900480601f0160208091040260200160405190810160405280929190818152602001828054600181600116156101000203166002900480156110585780601f1061102d57610100808354040283529160200191611058565b820191906000526020600020905b81548152906001019060200180831161103b57829003601f168201915b505050505081526020019060010190610fb0565b50505050905090565b60018181548110151561108457fe5b906000526020600020016000915054906101000a900473ffffffffffffffffffffffffffffffffffffffff1681565b671bc16d674ec80000341415156110c957600080fd5b600260008082825401925050819055506001600660008373ffffffffffffffffffffffffffffffffffffffff1673ffffffffffffffffffffffffffffffffffffffff1681526020019081526020016000206002013390806001815401808255809150509060018203906000526020600020016000909192909190916101000a81548173ffffffffffffffffffffffffffffffffffffffff021916908373ffffffffffffffffffffffffffffffffffffffff16021790555050506001600560003373ffffffffffffffffffffffffffffffffffffffff1673ffffffffffffffffffffffffffffffffffffffff1681526020019081526020016000206002018290806001815401808255809150509060018203906000526020600020016000909192909190916101000a81548173ffffffffffffffffffffffffffffffffffffffff021916908373ffffffffffffffffffffffffffffffffffffffff160217905550505050565b606060028054806020026020016040519081016040528092919081815260200182805480156112b257602002820191906000526020600020905b8160009054906101000a900473ffffffffffffffffffffffffffffffffffffffff1673ffffffffffffffffffffffffffffffffffffffff1681526020019060010190808311611268575b5050505050905090565b6060600660008373ffffffffffffffffffffffffffffffffffffffff1673ffffffffffffffffffffffffffffffffffffffff16815260200190815260200160002060020180548060200260200160405190810160405280929190818152602001828054801561138057602002820191906000526020600020905b8160009054906101000a900473ffffffffffffffffffffffffffffffffffffffff1673ffffffffffffffffffffffffffffffffffffffff1681526020019060010190808311611336575b50505050509050919050565b60048181548110151561139b57fe5b906000526020600020016000915090508054600181600116156101000203166002900480601f01602080910402602001604051908101604052809291908181526020018280546001816001161561010002031660029004801561143f5780601f106114145761010080835404028352916020019161143f565b820191906000526020600020905b81548152906001019060200180831161142257829003601f168201915b505050505081565b606060018054806020026020016040519081016040528092919081815260200182805480156114cb57602002820191906000526020600020905b8160009054906101000a900473ffffffffffffffffffffffffffffffffffffffff1673ffffffffffffffffffffffffffffffffffffffff1681526020019060010190808311611481575b5050505050905090565b60606000339050600084141561167b576114ed611c9f565b8681600001819052508581602001818152505083816080018190525080600560003373ffffffffffffffffffffffffffffffffffffffff1673ffffffffffffffffffffffffffffffffffffffff1681526020019081526020016000206000820151816000019080519060200190611565929190611ccf565b5060208201518160010155604082015181600201908051906020019061158c929190611d4f565b5060608201518160030190805190602001906115a9929190611dd9565b5060808201518160040190805190602001906115c6929190611ccf565b509050506003879080600181540180825580915050906001820390600052602060002001600090919290919091509080519060200190611607929190611e26565b50506001808390806001815401808255809150509060018203906000526020600020016000909192909190916101000a81548173ffffffffffffffffffffffffffffffffffffffff021916908373ffffffffffffffffffffffffffffffffffffffff160217905550505086925050506117d8565b60018414156117d35785600660008373ffffffffffffffffffffffffffffffffffffffff1673ffffffffffffffffffffffffffffffffffffffff16815260200190815260200160002060000190805190602001906116da929190611e26565b5084600660008373ffffffffffffffffffffffffffffffffffffffff1673ffffffffffffffffffffffffffffffffffffffff16815260200190815260200160002060010181905550600486908060018154018082558091505090600182039060005260206000200160009091929091909150908051906020019061175f929190611e26565b5050600160028290806001815401808255809150509060018203906000526020600020016000909192909190916101000a81548173ffffffffffffffffffffffffffffffffffffffff021916908373ffffffffffffffffffffffffffffffffffffffff1602179055505050859150506117d8565b600080fd5b949350505050565b600080905060008090505b600660003373ffffffffffffffffffffffffffffffffffffffff1673ffffffffffffffffffffffffffffffffffffffff16815260200190815260200160002060020180549050811015611956578473ffffffffffffffffffffffffffffffffffffffff16600660003373ffffffffffffffffffffffffffffffffffffffff1673ffffffffffffffffffffffffffffffffffffffff1681526020019081526020016000206002018281548110151561189e57fe5b9060005260206000200160009054906101000a900473ffffffffffffffffffffffffffffffffffffffff1673ffffffffffffffffffffffffffffffffffffffff161415611949573373ffffffffffffffffffffffffffffffffffffffff166108fc671bc16d674ec800009081150290604051600060405180830381858888f19350505050158015611933573d6000803e3d6000fd5b5060026000808282540392505081905550600191505b80806001019150506117eb565b5060011515811515141561197d5761196e8483611c44565b61197884336105b6565b611982565b600080fd5b600080905060008090505b600560008773ffffffffffffffffffffffffffffffffffffffff1673ffffffffffffffffffffffffffffffffffffffff16815260200190815260200160002060030180549050811015611a4d5784600560008873ffffffffffffffffffffffffffffffffffffffff1673ffffffffffffffffffffffffffffffffffffffff16815260200190815260200160002060030182815481101515611a2a57fe5b90600052602060002001541415611a4057600191505b808060010191505061198d565b505050505050565b60008060009050600080905060008090505b8580549050811015611af4578473ffffffffffffffffffffffffffffffffffffffff168682815481101515611a9857fe5b9060005260206000200160009054906101000a900473ffffffffffffffffffffffffffffffffffffffff1673ffffffffffffffffffffffffffffffffffffffff161415611ae757600192508091505b8080600101915050611a67565b50811515611b0157600080fd5b600185805490501415611b4e578481815481101515611b1c57fe5b9060005260206000200160006101000a81549073ffffffffffffffffffffffffffffffffffffffff0219169055611c27565b846001868054905003815481101515611b6357fe5b9060005260206000200160009054906101000a900473ffffffffffffffffffffffffffffffffffffffff168582815481101515611b9c57fe5b9060005260206000200160006101000a81548173ffffffffffffffffffffffffffffffffffffffff021916908373ffffffffffffffffffffffffffffffffffffffff160217905550846001868054905003815481101515611bf957fe5b9060005260206000200160006101000a81549073ffffffffffffffffffffffffffffffffffffffff02191690555b84805480919060019003611c3b9190611ea6565b50505092915050565b80600560008473ffffffffffffffffffffffffffffffffffffffff1673ffffffffffffffffffffffffffffffffffffffff1681526020019081526020016000206004019080519060200190611c9a929190611e26565b505050565b60a06040519081016040528060608152602001600081526020016060815260200160608152602001606081525090565b828054600181600116156101000203166002900490600052602060002090601f016020900481019282601f10611d1057805160ff1916838001178555611d3e565b82800160010185558215611d3e579182015b82811115611d3d578251825591602001919060010190611d22565b5b509050611d4b9190611ed2565b5090565b828054828255906000526020600020908101928215611dc8579160200282015b82811115611dc75782518260006101000a81548173ffffffffffffffffffffffffffffffffffffffff021916908373ffffffffffffffffffffffffffffffffffffffff16021790555091602001919060010190611d6f565b5b509050611dd59190611ef7565b5090565b828054828255906000526020600020908101928215611e15579160200282015b82811115611e14578251825591602001919060010190611df9565b5b509050611e229190611ed2565b5090565b828054600181600116156101000203166002900490600052602060002090601f016020900481019282601f10611e6757805160ff1916838001178555611e95565b82800160010185558215611e95579182015b82811115611e94578251825591602001919060010190611e79565b5b509050611ea29190611ed2565b5090565b815481835581811115611ecd57818360005260206000209182019101611ecc9190611ed2565b5b505050565b611ef491905b80821115611ef0576000816000905550600101611ed8565b5090565b90565b611f3791905b80821115611f3357600081816101000a81549073ffffffffffffffffffffffffffffffffffffffff021916905550600101611efd565b5090565b90565b6000611f46823561257a565b905092915050565b600082601f8301121515611f6157600080fd5b8135611f74611f6f8261248d565b612460565b91508082526020830160208301858383011115611f9057600080fd5b611f9b838284612596565b50505092915050565b6000611fb0823561258c565b905092915050565b600060208284031215611fca57600080fd5b6000611fd884828501611f3a565b91505092915050565b60008060408385031215611ff457600080fd5b600061200285828601611f3a565b925050602061201385828601611f3a565b9150509250929050565b60008060006060848603121561203257600080fd5b600061204086828701611f3a565b935050602061205186828701611fa4565b925050604084013567ffffffffffffffff81111561206e57600080fd5b61207a86828701611f4e565b9150509250925092565b6000806000806080858703121561209a57600080fd5b600085013567ffffffffffffffff8111156120b457600080fd5b6120c087828801611f4e565b94505060206120d187828801611fa4565b93505060406120e287828801611fa4565b925050606085013567ffffffffffffffff8111156120ff57600080fd5b61210b87828801611f4e565b91505092959194509250565b60006020828403121561212957600080fd5b600061213784828501611fa4565b91505092915050565b6121498161253e565b82525050565b600061215a826124e0565b80845260208401935061216c836124b9565b60005b8281101561219e57612182868351612140565b61218b82612517565b915060208601955060018101905061216f565b50849250505092915050565b60006121b5826124eb565b808452602084019350836020820285016121ce856124c6565b60005b848110156122075783830388526121e98383516122a9565b92506121f482612524565b91506020880197506001810190506121d1565b508196508694505050505092915050565b6000612223826124f6565b808452602084019350612235836124d3565b60005b828110156122675761224b8683516122df565b61225482612531565b9150602086019550600181019050612238565b50849250505092915050565b600061227e8261250c565b8084526122928160208601602086016125a5565b61229b816125d8565b602085010191505092915050565b60006122b482612501565b8084526122c88160208601602086016125a5565b6122d1816125d8565b602085010191505092915050565b6122e881612570565b82525050565b60006020820190506123036000830184612140565b92915050565b60006020820190508181036000830152612323818461214f565b905092915050565b6000602082019050818103600083015261234581846121aa565b905092915050565b6000602082019050818103600083015261236781846122a9565b905092915050565b600060208201905081810360008301526123898184612273565b905092915050565b600060408201905081810360008301526123ab8185612273565b905081810360208301526123bf8184612273565b90509392505050565b600060408201905081810360008301526123e28185612273565b90506123f160208301846122df565b9392505050565b600060a08201905081810360008301526124128188612273565b905061242160208301876122df565b81810360408301526124338186612218565b90506124426060830185612140565b81810360808301526124548184612273565b90509695505050505050565b6000604051905081810181811067ffffffffffffffff8211171561248357600080fd5b8060405250919050565b600067ffffffffffffffff8211156124a457600080fd5b601f19601f8301169050602081019050919050565b6000602082019050919050565b6000602082019050919050565b6000602082019050919050565b600081519050919050565b600081519050919050565b600081519050919050565b600081519050919050565b600081519050919050565b6000602082019050919050565b6000602082019050919050565b6000602082019050919050565b600061254982612550565b9050919050565b600073ffffffffffffffffffffffffffffffffffffffff82169050919050565b6000819050919050565b600061258582612550565b9050919050565b6000819050919050565b82818337600083830152505050565b60005b838110156125c35780820151818401526020810190506125a8565b838111156125d2576000848401525b50505050565b6000601f19601f830116905091905056fea265627a7a723058208725f84d8319635b0edf7a5c75c73f98d545ec0b0b76080d470c7b5c5a7686d76c6578706572696d656e74616cf50037",
  "source": "pragma solidity ^0.5.1;\npragma experimental ABIEncoderV2;\ncontract Agent {\n    \n    struct patient {\n        string name;\n        uint age;\n        address[] doctorAccessList;\n        uint[] diagnosis;\n        string record;\n    }\n    \n    struct doctor {\n        string name;\n        uint age;\n        address[] patientAccessList;\n    }\n\n    uint creditPool;\n\n    address[] public patientList;\n    address[] public doctorList;\n    string[] public patientDetails;\n    string[] public doctorDetails;\n\n    mapping (address => patient) patientInfo;\n    mapping (address => doctor) doctorInfo;\n    mapping (address => address) Empty;\n    // might not be necessary\n    mapping (address => string) patientRecords;\n    \n\n\n    function add_agent(string memory _name, uint _age, uint _designation, string memory _hash) public returns(string memory){\n        address addr = msg.sender;\n        \n        if(_designation == 0){\n            patient memory p;\n            p.name = _name;\n            p.age = _age;\n            p.record = _hash;\n            patientInfo[msg.sender] = p;\n            patientDetails.push(_name);\n            patientList.push(addr)-1;\n            return _name;\n        }\n       else if (_designation == 1){\n            doctorInfo[addr].name = _name;\n            doctorInfo[addr].age = _age;\n            doctorDetails.push(_name);\n            doctorList.push(addr)-1;\n            return _name;\n       }\n       else{\n           revert();\n       }\n    }\n\n\n    function get_patient(address addr) view public returns (string memory , uint, uint[] memory , address, string memory ){\n        // if(keccak256(patientInfo[addr].name) == keccak256(\"\"))revert();\n        return (patientInfo[addr].name, patientInfo[addr].age, patientInfo[addr].diagnosis, Empty[addr], patientInfo[addr].record);\n    }\n\n    function get_doctor(address addr) view public returns (string memory , uint){\n        // if(keccak256(doctorInfo[addr].name)==keccak256(\"\"))revert();\n        return (doctorInfo[addr].name, doctorInfo[addr].age);\n    }\n    function get_patient_doctor_name(address paddr, address daddr) view public returns (string memory , string memory ){\n        return (patientInfo[paddr].name,doctorInfo[daddr].name);\n    }\n\n    function permit_access(address addr) payable public {\n        require(msg.value == 2 ether);\n\n        creditPool += 2;\n        \n        doctorInfo[addr].patientAccessList.push(msg.sender)-1;\n        patientInfo[msg.sender].doctorAccessList.push(addr)-1;\n        \n    }\n\n\n    //must be called by doctor\n    function insurance_claim(address paddr, uint _diagnosis, string memory  _hash) public {\n        bool patientFound = false;\n        for(uint i = 0;i<doctorInfo[msg.sender].patientAccessList.length;i++){\n            if(doctorInfo[msg.sender].patientAccessList[i]==paddr){\n                msg.sender.transfer(2 ether);\n                creditPool -= 2;\n                patientFound = true;\n                \n            }\n            \n        }\n        if(patientFound==true){\n            set_hash(paddr, _hash);\n            remove_patient(paddr, msg.sender);\n        }else {\n            revert();\n        }\n\n        bool DiagnosisFound = false;\n        for(uint j = 0; j < patientInfo[paddr].diagnosis.length;j++){\n            if(patientInfo[paddr].diagnosis[j] == _diagnosis)DiagnosisFound = true;\n        }\n    }\n\n    function remove_element_in_array(address[] storage Array, address addr) internal returns(uint)\n    {\n        bool check = false;\n        uint del_index = 0;\n        for(uint i = 0; i<Array.length; i++){\n            if(Array[i] == addr){\n                check = true;\n                del_index = i;\n            }\n        }\n        if(!check) revert();\n        else{\n            if(Array.length == 1){\n                delete Array[del_index];\n            }\n            else {\n                Array[del_index] = Array[Array.length - 1];\n                delete Array[Array.length - 1];\n\n            }\n            Array.length--;\n        }\n    }\n\n    function remove_patient(address paddr, address daddr) public {\n        remove_element_in_array(doctorInfo[daddr].patientAccessList, paddr);\n        remove_element_in_array(patientInfo[paddr].doctorAccessList, daddr);\n    }\n    \n    function get_accessed_doctorlist_for_patient(address addr) public view returns (address[] memory )\n    { \n        address[] storage doctoraddr = patientInfo[addr].doctorAccessList;\n        return doctoraddr;\n    }\n    function get_accessed_patientlist_for_doctor(address addr) public view returns (address[] memory )\n    {\n        return doctorInfo[addr].patientAccessList;\n    }\n\n    \n    function revoke_access(address daddr) public payable{\n        remove_patient(msg.sender,daddr);\n        msg.sender.transfer(2 ether);\n        creditPool -= 2;\n    }\n\n    function get_patient_list() public view returns(address[] memory ){\n        return patientList;\n    }\n\n    function get_doctor_list() public view returns(address[] memory ){\n        return doctorList;\n    }\n     function get_patient_details() public view returns(string[] memory ){\n        return patientDetails;\n    }\n\n    function get_doctor_details() public view returns(string[] memory ){\n        return doctorDetails;\n    }\n\n    function get_hash(address paddr) public view returns(string memory ){\n        return patientInfo[paddr].record;\n    }\n\n    function set_hash(address paddr, string memory _hash) internal {\n        patientInfo[paddr].record = _hash;\n    }\n\n}\n\n",
  "sourcePath": "C:\\Users\\aayus\\Dropbox\\My PC (LAPTOP-THMNKUUV)\\Desktop\\SwasthyaChain-master\\SwasthyaChain-master\\app\\contracts\\Agent.sol",
  "compiler": {
    "name": "solc",
    "version": "0.5.1+commit.c8a2cb62.Emscripten.clang"
  },
  "schemaVersion": "3.4.11",
  "updatedAt": "2023-01-05T09:13:24.342Z",
  "devdoc": {
    "methods": {}
  },
  "userdoc": {
    "methods": {}
  }
}